:020000040800F2
:10000000780D00200D020008EB1A000809190008FD
:10001000E91A000893030008772200080000000096
:10002000000000000000000000000000EF1A0008BF
:100030009503000800000000ED1A0008F11A0008FE
:1000400027020008270200082702000827020008EC
:1000500027020008270200082702000827020008DC
:1000600027020008270200082702000827020008CC
:1000700027020008270200082702000827020008BC
:1000800027020008270200082702000827020008AC
:10009000270200082702000827020008270200089C
:1000A000270200082702000827020008270200088C
:1000B000270200082702000827020008270200087C
:1000C000270200082702000827020008270200086C
:1000D000270200082702000827020008270200085C
:1000E000270200082702000827020008270200084C
:1000F000270200082702000827020008270200083C
:10010000270200082702000827020008270200082B
:10011000270200082702000827020008270200081B
:10012000270200082702000827020008270200080B
:1001300027020008270200082702000827020008FB
:1001400027020008270200082702000827020008EB
:1001500027020008270200082702000827020008DB
:1001600027020008270200082702000827020008CB
:1001700027020008270200082702000800000000EC
:1001800027020008270200082702000827020008AB
:10019000270200082702000827020008270200089B
:1001A000270200082702000827020008270200088B
:1001B000270200082702000827020008270200087B
:1001C000270200082702000800000000270200089C
:1001D000270200082702000827020008270200085B
:1001E000270200082702000827020008270200084B
:1001F0002702000827020008DFF80CD000F08CF876
:1002000000480047B9220008780D002006488047C2
:1002100006480047FEE7FEE7FEE7FEE7FEE7FEE7EB
:10022000FEE7FEE7FEE7FEE79D1B0008F901000878
:100230002DE9F05F0546002092469B46884606461B
:10024000814640241BE0284641464746224600F0AE
:1002500053F853465A46C01A914110D311461846D6
:10026000224600F03AF82D1A67EB01084F46224665
:100270000120002100F031F817EB00094E41201E4B
:10028000A4F10104DFDC484631462A464346BDE876
:10029000F09F40EA01039B0703D009E008C9121F41
:1002A00008C0042AFAD203E011F8013B00F8013B30
:1002B000521EF9D27047D2B201E000F8012B491E5C
:1002C000FBD270470022F6E710B513460A460446F3
:1002D0001946FFF7F0FF204610BD202A04DB203A24
:1002E00000FA02F1002070479140C2F1200320FA89
:1002F00003F3194390407047202A04DB203A21FA87
:1003000002F00021704721FA02F3D040C2F120022E
:100310009140084319467047064C074D06E0E068D7
:1003200040F0010394E8070098471034AC42F6D33C
:10033000FFF766FF242500084425000870B58C18D7
:1003400010F8015B15F0070301D110F8013B2A11E9
:1003500006D110F8012B03E010F8016B01F8016BD6
:100360005B1EF9D12B0705D40023521E0DD401F8D2
:10037000013BFAE710F8013BCB1A921C03E013F89B
:10038000015B01F8015B521EF9D5A142D8D30020D0
:1003900070BDFEE7704700002DE9F041044621B131
:1003A0004FF40061C800C4E90201E069002500289B
:1003B00062D028462368D4E9021C3A4F40261A68C6
:1003C00041EA0C0101433A4041F4007010431860C7
:1003D00020680768012000F073F820680760206833
:1003E000466020684668012000F06AF820684FF6F1
:1003F00041724660206885602068C5602168886910
:10040000104040F08000886120688669012000F07B
:1004100057F8206886612068C5612068C569012099
:1004200000F04EF82068204B2049C561206800F597
:10043000805082691A4011438161206800F5805024
:100440008569012000F03CF82068194900F58050CA
:100450008561206800F580500160206800F58050BB
:100460000568012000F02CF8206800F58050056038
:10047000A069012803D009E04FF480609AE7206862
:100480000C4A00F58050C1691143C16160690A4995
:1004900082880A640278D0F8010042EA00204864A9
:1004A000BDE8F0810F8120FF233FDEF80400200229
:1004B0008020C1024000010000800240704700001F
:1004C00070B5044600F0EEFA0546601C02D0044800
:1004D0000078044400F0E6FA401BA042FAD370BD55
:1004E000F80300202DE9FC474FF000060400B14658
:1004F000009603D094F8440018B107E00120BDE84D
:10050000FC87204684F8456000F0E4F867480168FD
:1005100041F480410160006800F48040019064482B
:10052000016821F4000101600168226A1143016041
:10053000206800F58050016841F00101016000F081
:10054000B1FA4FF4FA77054609E000BF00F0AAFAC5
:10055000401BB84203D9032084F8440068E02068B7
:1005600000F580500068C007F0D12068006920F0D5
:100570001C0500F05DFF4F4A4F4902448A4202D2F7
:1005800045F0080516E04D494D4A0144914202D21A
:1005900045F00C050EE04B4A4B4902448A4209D310
:1005A0004A4A4B491044884202D245F0040501E012
:1005B00045F010052068056100214FF400422046F7
:1005C00000F040F94FF00105B0BBFF20FFF778FFC6
:1005D000606890B300F066FA804641F288370121E6
:1005E0006A46204600F0EAF800F05CFAA0EB08004A
:1005F000B84217D800984007F1D5002120464FF4A3
:10060000805200F01FF9B8B900F04CFA80466A46F3
:100610000121204600F0D2F800F044FAA0EB0800D7
:10062000B8420BD901212046FFF7B6FE84F84450AA
:10063000032084F8456062E724E018E00098800613
:10064000E5D51F216A46204600F0B8F8D0B90098D9
:10065000C10603D54FF40061E16000E0E6604007A9
:1006600001D5A66019E04FF48040A06015E0D4E900
:100670000210C00840EA510082B22046002100F07A
:10068000E1F830B101212046FFF786FE84F844509E
:1006900034E740F6FF70FFF713FF49462046FFF7A7
:1006A0007BFE84F84450002029E7000044380240D3
:1006B0000438014000D3CEFEC0E1E40040F1E9FD82
:1006C00040787D0100796CFC005A6202001F0AFA32
:1006D00080F0FA02F0B587B0044614216846FFF7AF
:1006E000F1FD30492068884259D12F48016841F016
:1006F00000710160016801F000710591016841F02D
:1007000080610160016801F080610591016841F03C
:1007100000610160016801F000610591016841F02C
:1007200004010160016801F004010591016841F0D4
:1007300001010160016801F001010591016841F0CA
:1007400002010160016801F002010591016841F0B8
:1007500040010160006802240025694600F0400065
:10076000059003260B2732208DE8F1000F4800F09A
:10077000A7F8862069468DE8F1000D4800F0A0F842
:10078000200369468DE8F1000A4800F099F84FF41B
:10079000205069468DE8F100074800F091F807B055
:1007A000F0BD0000008002403038024000080240E6
:1007B0000000024000040240001802402DE9F0470A
:1007C000044690F84400914682281DD082224FF6BC
:1007D000FF7084F844204FF4F863226803EA811123
:1007E000258A136900EAC52003F01C03184301435E
:1007F00021F0020040F00105156100F053F90127D6
:1008000006464FF4803811E00220BDE8F08700BFB3
:1008100000F048F9801B404506D3002084F844705E
:1008200084F845000320F0E720680569E807EFD168
:100830002068406981B2C9F8001084F84470002033
:10084000E3E700002DE9F041044690F84400422817
:100850001ED042204FF6FF7384F8440096B2206801
:100860004FF4F867258A07EA81110269466103EAB5
:10087000C520236802F01C021043014341F0030528
:100880001D6100F00FF9012706464FF4803811E092
:100890000220BDE8F08100BF00F004F9801B404554
:1008A00006D3002084F8447084F845000320F0E764
:1008B00020680569E807EFD184F84470E9E7000093
:1008C0002DE9F84FDFF89CE100224FF001084FF0CE
:1008D000030B4FF00F0A00BF0B6808FA02F4234025
:1008E000A34271D14D68022D01D0122D0FD1D50830
:1008F0000E69570700EB8505A9462D6AFF0E0AFA17
:1009000007FCBE4025EA0C052E43C9F820600F798C
:10091000550006680BFA05FC07F0030726EA0C06EB
:10092000AF40374307604E68012E05D0022E03D03A
:10093000112E01D0122E0ED18668CF6826EA0C0641
:10094000AF403743876046680F79A643C7F3001767
:10095000974037434760C4688E6824EA0C04AE4071
:100960002643C6604C68E40075D53F4C256845F4C5
:1009700080452560246822F00306950704F480442E
:1009800000943A4C2D0F2644D6F80848DFF8E0C012
:100990000AFA05F7604524EA070401D100272EE092
:1009A000344FB84201D1012729E0334FB84201D179
:1009B000022724E0314FB84201D103271FE0304F16
:1009C000B84202D104271AE045E02E4FB84201D1C7
:1009D000052714E02C4FB84201D106270FE02B4F1A
:1009E000B84201D107270AE0294FB84201D10827B0
:1009F00005E0284FB84201D1092700E00A27AF409F
:100A000027437546C6F808784E68DEF80040F603BE
:100A100024EA030400D51C43124E2C60361D4D6899
:100A20003468AD0324EA030400D51C430D4F346041
:100A300008374D683C68ED0224EA030400D51C43E6
:100A4000084D3C600C354E682C68B60224EA03045D
:100A500000D51C432C60521C102AFFF43DAFBDE8AA
:100A6000F88F0000003C0140443802400030014053
:100A7000000002400004024000080240000C024056
:100A8000001002400014024000180240001C024006
:100A900000200240002402400AB18161704709042D
:100AA000FBE700000148806870470000F803002061
:100AB000024881680278114481607047F803002081
:100AC000032010B500F060F8002000F005F800F0F9
:100AD00023F8002010BD000070B50D4D04464FF402
:100AE0007A700C4A29781268B0FBF1F0B2FBF0F092
:100AF00000F092FE48B9102C07D200222146501E69
:100B000000F022F800206C6070BD012070BD000074
:100B1000F8030020040400200A4808B5016841F0E9
:100B200080510160006800F0805000900548001D71
:100B3000016841F480410160006800F48040009049
:100B400008BD0000403802400E4BF0B41B680D4653
:100B5000C3F30223C3F10706042E00D90426191D8E
:100B6000072901D2002300E0DB1E012404FA06F16C
:100B70009C40491E2940641E994014402143F0BC0A
:100B800001F07ABB0CED00E0064900F0070210B559
:100B90004FF6FF040868044B204040EA0220184347
:100BA000086010BD0CED00E00000FA0501680123AB
:100BB000C0F8FC33002280F8F4238869044A40F02E
:100BC00000608861486D1043486500207047000050
:100BD000030000102DE9F04104008AB004D094F81D
:100BE000BD03002520B108E001200AB0BDE8F08176
:100BF000204684F8BC5300F063F8032084F8BD035A
:100C0000206801F0F9FA04F11001684628228846AC
:100C1000FFF73FFB94E80F0001F0C6F90227E0BBA5
:100C20002068002101F010FB0020012611E000BF28
:100C3000C0EBC001421C04EB810181F83D6081F8EA
:100C40003F504D648D640D6581F83C00A1F8420071
:100C5000D0B261688142EBD8002011E0C0EBC00146
:100C6000421C04EB810181F8FD5181F8FF51C1F86C
:100C70000452C1F80852C1F8105281F8FC01D0B2F8
:100C800061688142EAD8282241466846FFF701FBA5
:100C900094E80F0001F0E6F910B184F8BD73A3E702
:100CA000606A84F8385084F8BD63012802D1204678
:100CB000FFF77CFF206801F0C9F9002095E70000EC
:100CC00030B587B0044614216846FFF7FBFA206868
:100CD000B0F1A04F33D11B48016841F00101016020
:100CE000006800240221184D00F0010005904FF427
:100CF000E8500A238DE8130003226946CDE9032357
:100D00002846FFF7DDFD68156946CDE90004284651
:100D10000294FFF7D5FD0B48001D016841F08001EA
:100D20000160006800F080000590064814300168FA
:100D300041F480410160006800F48040059007B0F4
:100D400030BD000030380240000002401848F8B5BD
:100D5000016841F0805101600068164C00F080503D
:100D60000090206840F480302060FFF79BFE4FF435
:100D70007A76054605E000BFFFF794FE401BB042BF
:100D80000FD86068C003F7D5206840F400302060B9
:100D9000FFF788FE054606E0FFF784FE401BB042E1
:100DA00001D90320F8BD60688003F5D50020F8BDA7
:100DB00040380240007000400248016841F48071F0
:100DC00001607047007000402DE9F84F044600783C
:100DD000DFF824944FF000063746C0070ED0D9F84C
:100DE000001021F40001C9F80010D9F80010626B5E
:100DF0001143C9F80010606B00B90126FE4D206850
:100E0000843500030ED5E16B286820F440100843B8
:100E10002860E06BB0F5801F01D010B102E0012620
:100E200000E0012720684FF4800BC0020CD5216C34
:100E3000286820F4400008432860206C584501D100
:100E4000012601E000B901272068C10100D5012673
:100E5000800666D5E8483830016841F0805101606D
:100E60000068DFF898A300F080500090DAF80010D6
:100E700041F48071CAF80010FFF714FE804605E0C7
:100E8000FFF710FEA0EB080064287DD8DAF8000018
:100E9000C005F5D5DFF8608308F16808D8F80000D0
:100EA00010F440702AD0218E01F44071814225D087
:100EB000D8F80010D8F8002021F4407142F48032B4
:100EC000C8F80020D8F8002022F48032C8F80020AA
:100ED000C8F80010D8F80000C0070FD0FFF7E2FDF7
:100EE000824607E0FFF7DEFDA0EB0A0141F2883001
:100EF0008142CAD8D8F800008007F3D5206BC0F330
:100F0000012103297ED0D9F8001021F4F811C9F885
:100F10000010228ED8F80010C2F30B021143C8F85B
:100F200000102078C00607D5286820F0807028605F
:100F30002868A16B084328602188AF48883049049D
:100F400005D5626E016821F44031114301602188AA
:100F5000090405D5A26E016821F440211143016006
:100F60002168C90305D5E26E016821F440111143DF
:100F700001602168890305D5226F016821F44001D1
:100F800011430160217800E034E1490605D5626C27
:100F9000016821F00301114301602178090605D59C
:100FA000A26C016821F00C01114301602188C90580
:100FB00005D5E26C016821F0300111430160218800
:100FC000890505D5226D016821F0C001114301603A
:100FD0002188490505D5626D016821F440711143EE
:100FE00001602188090505D5A26D016821F44061E1
:100FF000114301602188C90407D5E26D016821F41D
:10100000405100E05FE0114301602188890405D56B
:10101000226E016821F440411143016021684902B8
:1010200005D5A26F016821F080611143016021683C
:101030004FF0006A890209D5E26F016821F0006172
:1010400011430160E16F514500D1012721680A0772
:1010500000D50127490305D5626F016821F0407171
:10106000114301602168090206D5D4F88020016887
:1010700021F08051114301602168490106D5D4F85F
:101080008420016821F000511143016020680001B3
:1010900006D5D4F88810286820F00070084328602E
:1010A0002068C00006D5D4F88C10286820F0806035
:1010B00008432860DFF84891012E0ED02068B0F177
:1010C000007F0AD08FE04F4AD9F80030104023F457
:1010D000F8120243C9F800201BE7D9F800004E4679
:1010E00020F08060C9F80000FFF7DCFC804605E0D6
:1010F000FFF7D8FCA0EB080064287BD8306800011B
:10110000F6D421783C487C30C90712D0616B81B994
:10111000237A62680168D0F800C09201C1F30141EE
:1011200042EA0142CCF3036142EA016141EA037100
:10113000016021680A0303D5E26BB2F5801F04D079
:10114000C9021AD5216C594517D16368016894F812
:101150000CC002689B01C1F3014143EA0141C2F3A3
:10116000027241EA0C6141EA027101602968626A17
:1011700021F01F01521E114329602168C90110D5B9
:10118000238A62680168D0F800C09201C1F303614C
:1011900042EA034242EA0162CCF3027142EA01717F
:1011A0000160216889010CD56168228A237B94F84B
:1011B00008C0890141EA024141EA036141EA0C7138
:1011C00001603168B04641F080613160FFF76AFC30
:1011D000064604E0FFF766FC801B64280AD8D8F8AE
:1011E00000000001F6D5E7B3D9F800004E4620F024
:1011F000805009E07BE000000838024000700040A9
:1012000000380240FFFCFF0FC9F80000FFF74AFC5E
:10121000074604E0FFF746FCC01B642867D8306827
:10122000C0438000F6D5216835480A0301D5E26B3A
:101230001AB1C9021DD5216CD9B963690168277E2D
:1012400002689B01C1F3014143EA0143C2F3027109
:1012500043EA076242EA0171016029686FF0FF0307
:1012600000E04BE0A26A21F4F85103EB02221143A3
:1012700029602168890212D5E16F51450FD1238C75
:101280006269016807689201C1F3036142EA03429F
:1012900042EA0162C7F3027142EA017101602178FA
:1012A000090716D561690268D0F800C08B01277F55
:1012B000C2F30362CCF3014143EA014141EA026116
:1012C00041EA077101602868E16A20F44030084370
:1012D0002860306840F080503060FFF7E3FB044640
:1012E00008E000BFFFF7DEFB001B642802D90320E3
:1012F000BDE8F88F3068C0438000F3D40020F7E7E2
:10130000883802402DE9F04705000F4663D0444E6F
:10131000306800F00F00B84209D2306820F00F00AA
:1013200038433060306800F00F00B84253D128686D
:101330003C4C810712D5400703D5206840F4E050AB
:1013400020602878000703D5206840F460402060C2
:10135000A968206820F0F000084320602878C007C2
:101360002AD0304968680839012810D00968022855
:1013700010D0890700292EDA216821F003010143EA
:101380002160FFF78FFB804641F288390DE0096844
:101390008903EFE78901EDE7FFF784FBA0EB080184
:1013A000494502D90320BDE8F0876868216801F04B
:1013B0000C01B1EB800FEFD1306800F00F00B842A4
:1013C0000BD9306820F00F0038433060306800F0EF
:1013D0000F00B84201D00120E5E72878400705D585
:1013E000E968206820F4E05008432060287800076E
:1013F00006D52869216821F4604141EAC0002060D7
:1014000000F03CF82168084AC1F30311515CC84060
:10141000064908600020FFF75FFB0020C3E70000DB
:10142000003C0240083802400C250008040400205B
:101430000148006870470000040400200449054882
:1014400009680068044AC1F38221515CC8407047B2
:1014500008380240040400201C25000804490548FF
:1014600009680068044AC1F34231515CC8407047C2
:1014700008380240040400201C250008154910B556
:101480001548096811F00C0213D04110042A0FD03E
:10149000082A0ED10F4C241F2268236802F03F0255
:1014A0005B0207D52068C0F38810A0FB010106E0AD
:1014B000084610BD2168C1F38811A1FB000100237B
:1014C000FEF7B6FE2168C1F30141491C4900B0FB9B
:1014D000F1F010BD083802400024F4002DE9F84F67
:1014E00005004FF000076ED02878DFF82093A9F1AF
:1014F000040AC007AAF104044CD0D9F800104846E9
:10150000C1F38101012908D00068C0F381000228DD
:101510000AD1DAF80000400206D52068800339D5E8
:1015200068680028DFD035E06868B0F5803F0BD0F0
:1015300010B1B0F5A02F11D0206820F480302060C9
:10154000206820F4802002E0206840F48030206091
:10155000686890B1FFF7A6FA06460AE0206840F4F2
:1015600080202060F0E700BFFFF79CFA801B642812
:1015700072D820688003F7D50CE0FFF793FA06468F
:1015800005E000BFFFF78EFA801B6428F0D82068C2
:101590008003F7D42878800742D5D9F80010484650
:1015A00011F00C0F08D00068C0F3810002280BD1A5
:1015B000DAF80000400207D42068800718D5E868F0
:1015C000012800D114E01EE1E8680028206817D047
:1015D00040F001002060FFF765FA064605E000BF15
:1015E000FFF760FA801B0228C2D820688007F7D571
:1015F0002869216821F0F80141EAC00020600FE06D
:1016000020F001002060FFF74DFA064605E000BF1C
:10161000FFF748FA801B02281ED820688007F7D4FD
:101620002878000729D5794869696C3000298046F7
:10163000016812D041F001010160FFF733FA06465C
:1016400005E000BFFFF72EFA801B022804D8D8F867
:1016500000008007F6D510E089E021F0010101606B
:10166000FFF720FA064604E0FFF71CFA801B022869
:101670007DD8D8F800008007F6D4287840076BD5CD
:10168000DFF8888108F13808D8F80000C0000BD4D2
:10169000D8F8001041F08051C8F80010D8F80000C8
:1016A000012700F08050009059480168C90512D404
:1016B0000168834641F480710160FFF7F3F9064643
:1016C00005E000BFFFF7EEF9801B64284FD8DBF878
:1016D0000000C005F6D54D4EA868683601280AD02E
:1016E00008B1052811D0306820F001003060306862
:1016F00020F0040002E0306840F001003060A8688B
:10170000A0B1FFF7CFF983460CE0306840F0040049
:101710003060F0E7FFF7C6F9A0EB0B0141F288302B
:10172000814268D830688007F4D50EE0FFF7BAF937
:10173000834607E0FFF7B6F9A0EB0B0141F28830D2
:10174000814258D830688007F4D42FB1D8F80010FF
:1017500021F08051C8F80010A869E0B3D9F8001052
:10176000C1F3810102294ED00228206800E042E046
:1017700020F08070206003D0FFF794F905463DE02B
:10178000FFF790F9064604E0FFF78CF9801B02286A
:1017900031D820688001F7D4D5E90921DFF874C079
:1017A000D5E9070695F830304F0895F82C103043EE
:1017B0000CEB074545EA8212104340EA016040EA1B
:1017C0000370CAF80000206840F080702060FFF7C6
:1017D00069F9054605E014E0FFF764F9401B0228AB
:1017E00009D820688001F7D50BE000BFFFF75AF950
:1017F000401B022802D90320BDE8F88F2068800131
:10180000F4D40020F8E70120F6E700000838024091
:10181000007000400000FFFF401EB0F1807F10B557
:1018200001D3012010BD4FF0E02460610F2160174B
:1018300000F022FD0020A0610721216110BD10B53C
:10184000040002D0606F10B107E0012010BD00203D
:1018500084F87000204600F025F824206067206896
:10186000016821F001010160204600F043FA0128DF
:10187000ECD0606A10B1204600F0BAF920684168E7
:1018800021F4904141602068816821F02A01816043
:101890002068016841F0010101602046BDE8104068
:1018A00000F00ABA10B586B0044614216846FEF767
:1018B00009FD1249206888421ED11148016841F48F
:1018C00080210160006800F4802005900C481038E9
:1018D000016841F00801016000680221002200F067
:1018E00008000590032307244FF440708DE81F0083
:1018F00004486946FEF7E4FF06B010BD004800400A
:1019000040380240000C0240FEE700007CB512485F
:101910000125104C00218022E123C0E9004501820D
:1019200014048DF800108DF801206A468DF80230FD
:101930008DF804108DF803108DF80510C0E905210D
:10194000C0E90714FEF7CEFD002801D0FEF7B6FD72
:101950007CBD000000800240080400202DE9F04713
:1019600086B014216846FEF7ADFC3C48016841F0A2
:1019700004010160016801F004010591016841F072
:1019800080010160016801F080010591016841F06A
:1019900001010160016801F001010591016841F058
:1019A00002010160016801F002010591016841F046
:1019B00008010160016801F008010591016841F02A
:1019C0004001016000684FF48146DFF894800022F6
:1019D00000F04000314605904046FFF75DF8DFF823
:1019E0008490002240214846FFF756F8DFF878A09F
:1019F0004FF4E067002239465046FFF74DF81B4987
:101A000000244FF400508DE8130069465046FEF75D
:101A100057FF01250096CDE90154694640460394DD
:101A2000FEF74EFF40200090CDE90154694648463C
:101A30000394FEF745FF80206946CDE9000448463F
:101A40000294FEF73DFF00976946CDE901545046E8
:101A50000394FEF735FF06B0BDE8F087303802404A
:101A6000000402400018024000080240000011106B
:101A70000D48002110B50B4C0C224FF4E1330460EB
:101A8000C0E90131C160C0E904128161C161016234
:101A90004162FFF7D4FE002803D0BDE81040FEF7F6
:101AA0000DBD10BD00480040500400200D4800212D
:101AB00070B50222C0E90321012382610624C0E936
:101AC000073141624FF0A045C0E90B31C0E9005435
:101AD000FFF780F8002803D0BDE87040FEF7EEBCA9
:101AE00070BD0000D0040020FEE7704770477047CB
:101AF000FEF7DEBF70B5B8B0342124A8FEF7E2FBD4
:101B0000142131A8FEF7DEFB90216846FEF7DAFBD0
:101B1000FFF752F91E48016841F0805101600068EA
:101B200000F0805036901B48016841F4404101604C
:101B300000684FF4A021022400F4404036900120B8
:101B4000D825820509260423CDE92A42CDE92401BE
:101B5000CDE92C35CDE92E4624A8FFF7BFFCFFF7D1
:101B6000F5F8E2024FF4A0510025CDE9341231AA74
:101B70000F20072182E8310031A8FFF7C3FB064898
:101B800013951F9500906846FFF71EF938B070BD99
:101B9000403802400070004000012000104A30B57B
:101BA0001048146800210F4B44F47004146008338B
:101BB00005680D4A0D4C45F0010505601960036884
:101BC000051D1340074A03600C322C600568E305CD
:101BD000034C25F480250560803C1160236030BDF6
:101BE00088ED00E000380240FFFFF6FE10300024D0
:101BF00090F82410C90706D00168836A4A6822F465
:101C000000321A434A6090F82410890706D501680B
:101C1000C36A4A6822F480321A434A6090F824105A
:101C2000490706D50168036B4A6822F480221A43EB
:101C30004A6090F82410090706D50168436B4A688A
:101C400022F400421A434A6090F82410C90606D5CF
:101C50000168836B8A6822F480521A438A6090F884
:101C60002410890606D50168C36B8A6822F40052E5
:101C70001A438A6090F82410490611D50168036C54
:101C80004A6822F480121A434A60016CB1F5801F41
:101C900006D10168436C4A6822F4C0021A434A60C4
:101CA00090F82410090606D50168826C486820F473
:101CB000002010434860704738B500250446C567CA
:101CC000FEF7F0FE03462068006800070BD56FF0B2
:101CD0007E400090002220464FF4001100F034F9BD
:101CE00008B1032038BD2020606784F87050A067D9
:101CF000002038BD2DE9F04104468068DFF818C2A5
:101D0000864F2368D4E90452E16928431E68002500
:101D10000A438349104306EA0C0606431E604FF44B
:101D200000422068E668436823F44053334343602D
:101D30002368A669206AD3F808C030432CF43066C3
:101D400006439E602068B8420AD1086810F003007C
:101D500052D001287BD002287AD003286ED186E0A9
:101D6000704B98420AD1086810F00C0079D0042812
:101D70007BD0082877D00C2860D178E06A4B984255
:101D80000AD1086810F030006BD010286DD02028E0
:101D900069D0302852D16AE0644B98420AD1086871
:101DA00010F0C0005DD040285FD080285BD0C028F4
:101DB00044D15CE05E4B98420DD1086810F440704D
:101DC0004FD0B0F5807F50D0B0F5007F4BD0B0F54C
:101DD000407F33D14BE0574B98420FD1086810F445
:101DE000406009D0B0F5806F3FD0B0F5006F3AD0B9
:101DF000B0F5406F22D13AE0012120E04E4B9842ED
:101E00000DD1086810F440502BD0B0F5805F2CD075
:101E1000B0F5005F27D0B0F5405F0FD127E0474B0A
:101E200098420BD1086810F440401AD0B0F5804FAA
:101E30001BD0904217D0B0F5404F18D01021E06968
:101E40004FF6EF76904238D109295DD202E00CE0DE
:101E500009E006E0DFE801F00D1027582A5858582D
:101E60002D000021EBE70221E9E70421E7E7082143
:101E7000E5E7FFF7E3FA01E0FFF7F0FA0146D4F8EF
:101E80000400490001EB5001B1FBF0F080B2A0F179
:101E90001001B14238D84FF6F0732168C0F3420206
:101EA0001840104324E026496068EBE7FFF7E6FAA4
:101EB000E4E760684FF48031E4E7092924D2DFE8E1
:101EC00001F0050819231C2323231F00FFF7B6FA8E
:101ED00001E0FFF7C3FA0146D4F8040001EB50011A
:101EE000B1FBF0F080B2A0F11001B1420CD8216832
:101EF000C8600AE013496068F0E7FFF7BFFAEAE755
:101F0000606802EB5001EBE7012500202066606667
:101F10002846BDE8F0810000F369FFEF00100140A2
:101F2000903802400044004000480040004C00400F
:101F3000005000400014014000780040007C004048
:101F40000048E8010024F4002DE9F04198461746C6
:101F50000E460446069D08E0681C06D0FEF7A2FD6A
:101F6000A0EB0800A8420BD855B12068C06936EA3A
:101F7000000017D00020B842EED00020BDE8F0816C
:101F80002168202000220B6823F4D0730B602168A5
:101F90008B6823F001038B606067A067032084F8DF
:101FA0007020EBE70120E6E770B504460698049D33
:101FB0000D99012815D0E06840F04000E06020460F
:101FC00000F028F8A16B41F48031A163012D07D105
:101FD000A16841F00601A160A16841F02001A16063
:101FE00070BDA06B01290A4A20F48030A063E0682C
:101FF00000EA0200E060E06820F44010E06003D1F5
:10200000E06840F48010E060204600F003F8DDE76F
:10201000BFFFBDFF0C49012202E0521C8A420BD8CF
:102020000369002BF9DA0369012243F0010303611C
:1020300004E0521C8A4201D9032070470369DB0780
:10204000F7D1002070470000400D030010B5D0F814
:10205000041841F00201C0F804180320FEF730FA1A
:10206000002010BD2DE9F04F0E4604460021DDE9A9
:102070000B2BDDF840800D46099F084604EB800CD1
:10208000CCF80411401C0F28F8D32046A06BB8F1FF
:10209000000F15D040F4001CC4F838C0894608462B
:1020A000C4F8000E2046D4F80018012AC4F800181D
:1020B00034D0032A32D0D0F8001841F0030111E0E7
:1020C00020F4001CC4F838C0206840F0400CC4F86C
:1020D00000C0206840F0800CC4F800C0DEE700BFFC
:1020E00041F00101C0F80018102100F09BF800B188
:1020F0000125204600F086F800B1012548464FF042
:10210000006C4FF67F334FF0904AC4F81098C4F833
:102110001498C4F81C980021994619E0D0F80018CA
:10212000002BDFD0DCE700BF04EB4112D2F800390E
:10213000002B06DA11B1C2F800A904E0C4F800C906
:1021400001E0C2F80009C2F81009C2F80899491C58
:102150008E42E9D8002113E004EB4112D2F8003B93
:10216000002B06DA11B1C2F800AB04E0C4F800CBD2
:1021700001E0C2F8000BC2F8100BC2F8089B491C22
:102180008E42E9D8D4F81018012F21F4807221462C
:10219000C4F8102808D1144B144AC1F83038D1F8CB
:1021A00030181143C4F830186FF08041A0616161AC
:1021B0001FB9A06940F01000A061A069BBF1000F39
:1021C0000B4A40EA0200A06103D0A06940F0080079
:1021D000A061B8F1010F03D1A06906490843A061CD
:1021E0002846BDE8F08F00000001800003000100D8
:1021F00000383C8004000040816821F001018160CA
:1022000000207047064A102101610021491C9142BB
:1022100001D9032070470369DB06F7D4002070471B
:10222000400D03002023074A43EA81130361002184
:10223000491C914201D90320704703699B06F7D4DA
:1022400000207047400D030010B5C268012922F03C
:10225000C042C26002D029B1012010BDC16841F066
:10226000005102E0C16841F08041C1603220FEF7B8
:1022700027F9002010BDFEE7090700284FEA116189
:1022800004DB00F1E02080F80014704700F00F003C
:1022900000F1E02080F8141D704702E008C8121F0A
:1022A00008C1002AFAD170477047002001E001C13F
:1022B000121F002AFBD17047FEF702FCFFF71AFC41
:1022C000FFF74CFBFFF722FBFFF7D2FBFFF7EEFB1C
:1022D000032000F031F80BA00468E5B20421284681
:1022E00000F0D4F80321C4F3072000F0CFF8022156
:1022F000C4F3074000F0CAF8200E012100F0C6F830
:10230000ECE70000313030300000000010B5002450
:102310000021E0B200F06CF8641C202CF8DB054BC7
:102320000021084603F1500219541154401C502852
:10233000FADB10BDD408002010B5002104460920A6
:1023400000F0C0F807210B2000F0BCF801210C20A0
:1023500000F0B8F800210F2000F0B4F8FFF7D6FF26
:102360002146BDE810400A2000F0ACB82DE9F04746
:102370001D4E0D46012101FA00F1705D0AB10843BE
:1023800000E08843DFF864A04FF400797055EF084F
:1023900049460022504605F00704FEF77DFBB04693
:1023A000C7F103060027641CBE4205D1204600F099
:1023B0004BF818F8050003E0002000F045F8002075
:1023C00000F042F87F1C042FEEDB00224C46494609
:1023D00055465046FEF760FB21462846BDE8F047CB
:1023E0000122FEF759BB0000D4080020000802407B
:1023F0002DE9F05FC708804600F007090D46072069
:102400008B46002600EBC70ABE420DD1544607E0BA
:10241000EA094846E1B2FFF7A9FF6806050E641E07
:10242000B4EBC70FF4DA05E0002000F00DF800204F
:1024300000F00AF8761C042EE6DB024A02F808B027
:10244000BDE8F09F240900202DE9F0410E4F002443
:102450004FF4806605464FF48078314600223846B6
:10246000FEF71AFB05F0800241463846FEF714FBE2
:10247000680631460122050E3846FEF70DFB641C46
:10248000082CEADBBDE8F081000802402DE9F041AC
:102490000B4E01228846062502EBC00416F83010C8
:1024A000671808E005EBC800315D0838C0B2FFF7D7
:1024B0009FFF641C6D1EA742F4DCBDE8F0810000A4
:1024C000000000202DE9F0410F4D4FF4007600226E
:1024D0000F46804631462846FEF7DEFA0024404685
:1024E000FFF7B2FF3846FFF7AFFF641C042CF6DBA2
:1024F000002231462846FEF7CFFA31462846BDE88D
:10250000F0410122FEF7C8BA0008024000000000B6
:102510000000000001020304060708090000000093
:102520000102030444250008000000200804000004
:102530003C03000818280008080400207009000067
:10254000AA220008812F053E5B4F5B3E082C6B4F93
:102550006B081E1C3E7C3E1C082E183C7E3C18104E
:102560002C577D57101D1C5E7F5E0812042A181719
:10257000113F05FFE7C3E7FF105A24102ADB101FA5
:102580000530483A060E081E2629792926084E40AD
:102590007F050507081B253F081E5A3CE73C5A08E3
:1025A0001E7F3E1C1C08081E081C1C3E7F081E14B3
:1025B000227F221408135F5F1903111E0506097F8D
:1025C00001182E046689956A602A600119082E9404
:1025D000A2FFA294382C047E04402E10207E2010EE
:1025E000105B082A502B2A08081B1E100119081B13
:1025F0000C1E0229982D383E383058250E3E0E0606
:1026000072031A016C4113030719A629881A7F0265
:1026100019081E242A7F2A12081E23130864620840
:102620001E3649562050283B08073B3D031C2241DB
:10263000083C41221C383E2A1C7F1C2A882A3E80E6
:102640001C0380706E39101901212A02BD29101E49
:102650002010080402081E3E5149453E283C427F96
:1026600040181E7249494946081E2141494D330808
:102670002D1814127FC01E2745454539081E3C4AB7
:10268000494931081D41211109AA19901C494936AF
:10269000081E464949291EC819B441540280683CA5
:1026A000040814A12B05140119101C4122148711D0
:1026B0002F050201590906801D415D594E081E7CF7
:1026C0001211127C085A7F502E3E414141221019AE
:1026D0000819A0391819494F057F09090901202B4C
:1026E00051731019D71A7FC02B417F6719D82C401E
:1026F000413F204A7F791C057F400129081C021CAC
:1027000002282E057F0408100829603958195049FD
:10271000883C51215E101C192946081A26701A326D
:10272000081E03017F0103081A3F471A3F083E1F96
:102730002040201F103A38102E6314081463282CF0
:10274000047804281E6159494D439019B839901AEC
:1027500002702A20A01A417619101E0402010204F8
:1027600008299719984D03030708B83C545478A8D2
:102770001D28444438082D384444441819082A2890
:10278000B02638545454182E04087E0902183E18F6
:10279000A4A49C78E81B0404081C03447D3E192073
:1027A0002D4080807A082C7F1028403C03417F1800
:1027B0001B057CA029304A7C30396029681DFC1833
:1027C0002424582A05075AFC2019921B0548701A20
:1027D00024481C043F4407111F053C4040207C084E
:1027E0003E1C2040201C101C30403C083B44286903
:1027F0002E054C909090201D4464544C10450308C5
:1028000036416301774C034136E81D02010204C1E1
:08281000320182101324F400D0
:04000005080001F9F5
:00000001FF
